:020000040800F2
:10000000C806002089010008ED1100081B11000836
:10001000E91100088F020008F91300080000000031
:100020000000000000000000000000001D12000899
:100030009302000800000000F11100081F120008E0
:10004000A3010008A3010008A3010008A301000800
:10005000A3010008A3010008A3010008A3010008F0
:10006000A3010008A3010008A3010008A3010008E0
:10007000A3010008A3010008A3010008A3010008D0
:10008000A3010008A3010008A3010008A3010008C0
:10009000A3010008A3010008A3010008A3010008B0
:1000A000A3010008A3010008A3010008A3010008A0
:1000B000A3010008A3010008A3010008A301000890
:1000C000A3010008A3010008A3010008A301000880
:1000D000A3010008A3010008A3010008A301000870
:1000E000A3010008A3010008A301000800F002F822
:1000F00000F03AF80AA090E8000C82448344AAF188
:100100000107DA4501D100F02FF8AFF2090EBAE885
:100110000F0013F0010F18BFFB1A43F0010318473B
:1001200090130000B0130000103A24BF78C878C1C3
:10013000FAD8520724BF30C830C144BF04680C60ED
:10014000704700000023002400250026103A28BF35
:1001500078C1FBD8520728BF30C148BF0B60704739
:100160001FB51FBD10B510BD00F058F81146FFF7C0
:10017000F7FF01F05FF900F076F803B4FFF7F2FF44
:1001800003BC00F07DF8000009488047094800479B
:10019000FEE7FEE7FEE7FEE7FEE7FEE7FEE7FEE737
:1001A000FEE7FEE704480549054A064B7047000094
:1001B0008D120008ED000008C8000020C8060020CD
:1001C000C8020020C80200204FF0000200B513460C
:1001D00094469646203922BFA0E80C50A0E80C5067
:1001E000B1F12001BFF4F7AF090728BFA0E80C5018
:1001F00048BF0CC05DF804EB890028BF40F8042B11
:1002000008BF704748BF20F8022B11F0804F18BF7D
:1002100000F8012B7047704770477047754600F033
:100220002BF8AE4605006946534620F00700854688
:1002300018B020B5FFF7B6FFBDE820404FF000062C
:100240004FF000074FF000084FF0000B21F00701BE
:10025000AC46ACE8C009ACE8C009ACE8C009ACE801
:10026000C0098D46704710B50446AFF300802046A4
:10027000BDE81040FFF781BF0048704764000020D0
:1002800001491820ABBEFEE726000200704700BF00
:10029000FEE7704772B600BFFEE700002DE9F847A1
:1002A0000346002294466EE14FF0010808FA02F47A
:1002B000D1F8008008EA0400A0427DD1DFF8DCA27A
:1002C000D1F80480A8EB0A09D0453AD014DCB8F183
:1002D000030F50D009DCB8F1000F31D0B8F1010F95
:1002E0001CD0B8F1020F49D120E0B8F1110F18D09D
:1002F000B8F1120F42D11EE0B9F5881F25D006DCF7
:10030000B9F5803F20D0B9F5801F37D11AE0B9F593
:10031000001F18D0B9F5041F30D117E0D1F80CC078
:100320002DE0D1F80C8008F1040C28E0D1F80C8005
:1003300008F1080C23E0D1F80C8008F10C0C1EE049
:1003400000BF00BF00BF00BF00BF00BFD1F80880E2
:10035000B8F1000F02D14FF0040C0BE0D1F8088087
:10036000B8F1010F03D14FF0080C1C6102E04FF00F
:10037000080C5C6103E04FF0000C00E000BF00BF20
:10038000FF2801D8984601E003F104084646FF28FB
:1003900002D84FEA820803E0A2F108084FEA880871
:1003A0004746D6F800804FF00F0909FA07F928EA06
:1003B00009080CFA07F900E088E048EA0908C6F8DD
:1003C0000080D1F8048008F08058B8F1805F7DD1BA
:1003D00000BFDFF8CC81D8F8188048F00108DFF8BA
:1003E000C091C9F81880C846D8F8188008F00108EC
:1003F000CDF8008000BF00BF4FEAB9384FEA92093C
:1004000058F829504FEA82784FEA18794FF00F08D0
:1004100008FA09F825EA0805DFF88881434502D182
:100420004FF0000816E0DFF88081434502D14FF01D
:1004300001080FE0DFF87481434502D14FF0020854
:1004400008E0DFF86C81434502D14FF0030801E07A
:100450004FF004084FEA82794FEA197908FA09F84F
:1004600048EA0505DFF84C814FEA920948F829501F
:10047000D1F8048008F48038B8F5803F0AD1DFF85D
:100480003881D8F8008048EA0008DFF82C91C9F8D4
:10049000008009E0DFF82081D8F8008028EA000811
:1004A000DFF81491C9F80080D1F8048008F400380E
:1004B000B8F5003F10D1DFF8008108F10408D8F842
:1004C000008048EA0008DFF8F09000E05AE009F107
:1004D0000409C9F800800DE0DFF8DC8008F10408A9
:1004E000D8F8008028EA0008DFF8CC9009F1040968
:1004F000C9F80080D1F8048008F48018B8F5801F8E
:100500000ED1DFF8B48008F10808D8F8008048EA76
:100510000008DFF8A49009F10809C9F800800DE08F
:10052000DFF8948008F10808D8F8008028EA00086D
:10053000DFF8849009F10809C9F80080D1F8048037
:1005400008F40018B8F5001F0ED1DFF86C8008F130
:100550000C08D8F8008048EA0008DFF85C9009F140
:100560000C09C9F800800DE0DFF84C8008F10C0898
:10057000D8F8008028EA0008DFF83C9009F10C095F
:10058000C9F80080521CD1F8008028FA02F8B8F1AE
:10059000000F7FF489AEBDE8F8870000000011105D
:1005A0000010024000080140000C01400010014012
:1005B00000140140080001400004014010B5C26869
:1005C00021EA020302EA010443EA0443036110BD85
:1005D0000AB1016101E00B04036170470148006842
:1005E00070470000040000200348006803490978B0
:1005F0000844014908607047040000200C000020F6
:1006000010B50848006840F0100006490860032053
:1006100000F098F80F2000F007F800F02BF8002009
:1006200010BD00000020024070B504460E4800785E
:100630004FF47A71B1FBF0F00C490968B1FBF0F5A9
:10064000284600F0FBFB08B1012070BD102C07D23A
:1006500000222146501E00F037F80548046001E0F2
:100660000120F2E70020F0E70C000020100000203D
:100670000800002008B500BF1148806940F0010063
:100680000F4988610846806900F00100009000BFB2
:1006900000BF00BF0846C06940F08050C8610846EE
:1006A000C06900F08050009000BF00BF00BF054946
:1006B000486820F0E06040F00070486000BF08BD6E
:1006C00000100240000001402DE9F05F80460D4619
:1006D0001646002700F092FE074639462A46334662
:1006E00001F00700C0F1070ABAF1040F02D94FF078
:1006F000040A01E0C0F1070AD14600F1040ABAF188
:10070000070F02D24FF0000A01E0A0F1030AD4461D
:100710004FF0010A0AFA09FAAAF1010A0AEA020AE2
:100720000AFA0CFA4FF0010B0BFA0CFBABF1010BC0
:100730000BEA030B4AEA0B042146404600F066FE32
:10074000BDE8F09F00BF00F00702064B19684FF6A6
:10075000FF031940044B0B4343EA0221014B19608C
:1007600000BF70470CED00E00000FA0570B50446CC
:100770000D460CB9012070BD5A48006800F0070012
:10078000A8420ED25748006820F007002843554978
:1007900008600846006800F00700A84201D0012068
:1007A000E9E7207800F0020002281DD1207800F04F
:1007B0000400042805D14C48406840F4E0604A49F0
:1007C0004860207800F00800082805D146484068B5
:1007D00040F46050444948604348406820F0F000CD
:1007E000A168084340494860207800F0010078B3D0
:1007F0006068012806D13C48006800F4003090B9D8
:100800000120B8E76068022806D13748006800F088
:10081000007040B90120AEE73348006800F00200E4
:1008200008B90120A7E73048406820F0030061685C
:1008300008432D494860FFF7D1FE064609E0FFF75F
:10084000CDFE801B41F28831884202D9032092E715
:1008500007E02548406800F00C006168B0EB810FAC
:10086000EDD12048006800F00700A8420ED91D48CD
:10087000006820F0070028431A490860084600680D
:1008800000F00700A84201D0012074E7207800F0B2
:100890000400042807D11448406820F4E060E168AF
:1008A000084311494860207800F00800082808D162
:1008B0000D48406820F46050216940EAC1000A49AF
:1008C000486000F03FF808494968C1F30311074A3E
:1008D000515CC8400649086006480068FFF7A4FE5E
:1008E000002048E700200240001002409814000851
:1008F0001000002008000020014800687047000038
:100900001000002000B5FFF7F7FF04494968C1F364
:100910000221034A515CC84000BD000000100240A3
:10092000A814000800B5FFF7E7FF04494968C1F3C0
:10093000C221034A515CC84000BD000000100240C3
:10094000A8140008F0B585B00FF26C0C9CE8E0101C
:1009500001A8A0E8E0101CA52D6800950021002248
:10096000002300240020194D696801F00C05F5B141
:10097000042D02D0082D19D101E0154819E001AD70
:10098000C1F38346AC5D01F4803555B10F4D6D6800
:10099000C5F340451DF805200D4D6543B5FBF2F349
:1009A00002E00C4D04FB05F3184602E000BF0848C6
:1009B00000BF00BF05B0F0BD02030405060708092B
:1009C0000A0B0C0D0E0F1010010200000010024067
:1009D00000127A0000093D00F8B504460CB9012068
:1009E000F8BD207800F00100002878D0F848406871
:1009F00000F00C0004280CD0F548406800F00C0012
:100A0000082811D1F248406800F48030B0F5803FEA
:100A10000AD1EF48006800F4003000285FD0606819
:100A200000285CD10120DBE700BF6068B0F5803FA3
:100A300006D1E748006840F48030E549086028E0C6
:100A4000606858B9E248006820F48030E0490860E6
:100A50000846006820F4802008601AE06068B0F55D
:100A6000A02F0BD1DA48006840F48020D8490860F4
:100A70000846006840F4803008600AE0D448006806
:100A800020F48030D24908600846006820F48020B5
:100A9000086000BF606888B1FFF7A0FD054606E06A
:100AA000FFF79CFD401B642801D9032098E7C84844
:100AB000006800F400300028F2D010E0FFF78EFD4F
:100AC000054606E0FFF78AFD401B642801D9032094
:100AD00086E7BF48006800F400300028F2D1207893
:100AE00000F00200022857D1B948406800F00C001D
:100AF00050B1B748406800F00C00082818D1B4483D
:100B0000406800F4803098B9B148006800F00200F5
:100B100020B12069012801D0012061E7AC480068BC
:100B200020F0F800616940EAC100A949086033E09B
:100B30002069E8B10120A7490860FFF74FFD05468D
:100B400006E0FFF74BFD401B022801D9032047E7D1
:100B50009F48006800F002000028F2D09C4800681E
:100B600020F0F800616940EAC1009949086013E08B
:100B7000002098490860FFF731FD054606E0FFF7C1
:100B80002DFD401B022801D9032029E79048006869
:100B900000F002000028F2D1207800F008000828B8
:100BA0002DD1A069B8B101208B490860FFF716FD6F
:100BB000054606E0FFF712FD401B022801D903207D
:100BC0000EE78348406A00F002000028F2D00120BE
:100BD00000F010FB13E000207F490860FFF7FEFCE7
:100BE000054606E0FFF7FAFC401B022801D9032066
:100BF000F6E67748406A00F002000028F2D120783B
:100C000000F00400042873D100277148C06900F087
:100C1000805070B900BF6E48C06940F080506C4988
:100C2000C8610846C06900F08050009000BF00BF56
:100C300001276A48006800F48070B0B9674800680E
:100C400040F4807065490860FFF7C8FC054606E07F
:100C5000FFF7C4FC401B642801D90320C0E65F48AD
:100C6000006800F480700028F2D000BFE06801281E
:100C700006D15748006A40F001005549086227E054
:100C8000E06858B95248006A20F0010050490862F3
:100C90000846006A20F00400086219E0E0680528B0
:100CA0000BD14B48006A40F00400494908620846ED
:100CB000006A40F0010008620AE04548006A20F03E
:100CC0000100434908620846006A20F004000862F7
:100CD00000BFE068A0B1FFF781FC054609E0FFF71F
:100CE0007DFC401B41F28831884202D9032077E61F
:100CF00022E03748006A00F002000028EFD012E03E
:100D0000FFF76CFC054608E0FFF768FC401B41F26A
:100D10008831884201D9032062E62D48006A00F03C
:100D200002000028F0D1012F05D12948C06920F028
:100D300080502749C86100BFE069C8B324484068B3
:100D400000F00C00082860D0E069022848D100209B
:100D500020490866FFF742FC054606E0FFF73EFC27
:100D6000401B022801D903203AE61948006800F028
:100D700000700028F2D1206AB0F5803F07D11448F6
:100D8000406820F40030A168084311494860D4E964
:100D9000080108430E49496821F4741108430C49BD
:100DA000486001200B490866FFF718FC054607E07C
:100DB0003DE0FFF713FC401B022801D903200FE69A
:100DC0000348006800F000700028F2D02FE0000017
:100DD0000010024000004242800442420070004085
:100DE000002014490866FFF7F9FB054606E0FFF707
:100DF000F5FB401B022801D90320F1E50E480068ED
:100E000000F000700028F2D111E0E069012800D163
:100E1000E6E50948466806F48031206A814204D13B
:100E200006F47011606A814201D00120D8E50020EB
:100E3000D6E50000000042420010024070B50446B2
:100E40002546681EB0F1807F01D301200FE0681EA7
:100E50004FF0E02148610F214FF0FF3000F0D6FA4B
:100E600000204FF0E021886107200861002070BD5C
:100E700010B504460CB9012010BDA06900B100E016
:100E800000BF94F83D0028B9002084F83C002046BB
:100E900000F028F8242084F83D002068C06820F481
:100EA00000502168C860204600F0F2F9206800690F
:100EB00020F49040216808612068406920F02A00F1
:100EC000216848612068C06840F400502168C8600B
:100ED00000202064202084F83D0084F83E0000209B
:100EE000CAE7000010B586B00446002002900390C7
:100EF000049005901A49206888422ED100BF1948F5
:100F0000806940F48040174988610846806900F490
:100F10008040019000BF00BF00BF0846806940F0DC
:100F2000040088610846806900F00400019000BF59
:100F300000BF48150290022003900320059002A9EB
:100F40000948FFF7ABF94FF480600290002003904E
:100F5000049002A90448FFF7A1F906B010BD0000F3
:100F60000038014000100240000801402DE9F84F10
:100F700004460E46174699464FF0000A94F83E0084
:100F800020285FD106B117B90120BDE8F88F00BF56
:100F900094F83C00012801D10220F6E7012084F8F2
:100FA0003C0000BF00202064222084F83E00002086
:100FB0002063FFF713FB8246A785E785A068B0F59D
:100FC000805F04D1206910B90025B04602E03546A3
:100FD0004FF0000800BF002084F83C0000BF29E06B
:100FE0005346002220212046CDF8009000F0CEF993
:100FF00008B10320C9E745B920684068C0F308007C
:10100000A8F8000008F1020811E0A068B0F5805FC0
:1010100003D0A06828B9206918B9206840682870F2
:1010200004E02068406800F07F0028706D1CE08DAF
:10103000401EE085E08D0028D2D1202084F83E00BB
:101040000020A2E70220A0E72DE9F84F04460E4653
:10105000174699464FF0000A94F83D0020285AD1CF
:1010600006B117B90120BDE8F88F00BF94F83C0025
:10107000012801D10220F6E7012084F83C0000BFDE
:1010800000202064212084F83D00FFF7A7FA824663
:10109000A784E784A068B0F5805F04D1206910B907
:1010A0000025B04602E035464FF0000800BF0020A2
:1010B00084F83C0000BF1BE05346002280212046FC
:1010C000CDF8009000F062F908B10320CBE745B9F4
:1010D000B8F80000C0F308002168486008F1020871
:1010E00003E02878216848606D1CE08C401EE08495
:1010F000E08C0028E0D15346002240212046CDF864
:10110000009000F043F908B10320ACE7202084F8F8
:101110003D000020A7E70220A5E700BFFEE7000092
:1011200000B585B00020019002900390049000BFAC
:101130001D48806940F010001B498861084680699D
:1011400000F01000009000BF00BF00BF084680699B
:1011500040F0200088610846806900F0200000907F
:1011600000BF00BF00BF0846806940F004008861EE
:101170000846806900F00400009000BF00BF012213
:1011800051030A48FFF724FA4FF400500190012060
:101190000290002003900220049001A90348FFF769
:1011A0007DF805B000BD00000010024000100140B5
:1011B00010B50B480B4908604FF4E130486000213E
:1011C00008488160C16001610C2141610021816199
:1011D000C161FFF74DFE08B1FFF75CF810BD0000DC
:1011E000003801402000002000BFFEE700BFFEE7FE
:1011F0007047000008B508490968C9084FF47A72B9
:10120000B1FBF2F14143009100BF00BF00994A1EBB
:1012100000920029F9D108BD10000020704710B5D8
:10122000FFF7E2F910BD00B58FB0282105A8FEF741
:10123000CBFF14216846FEF7C7FF0120059000048C
:101240000690002007900120099002200C90C10315
:101250000D914FF4E0110E9105A8FFF7BDFB08B109
:10126000FFF718F80F200090022001900020029054
:101270004FF4806003900020049002216846FFF73D
:1012800075FA08B1FFF706F80FB000BD704700000F
:1012900070B504462168096921F44051E2681143A0
:1012A000226811612269A1681143626941EA02055D
:1012B0002168C96841F20C62914329432268D160D8
:1012C0002168496921F44071A26911432268516182
:1012D0002D4A2168914202D1FFF724FB01E0FFF77C
:1012E00011FB00EBC00101EB001162689200B1FB41
:1012F000F2F100EBC00202EB001263689B00B2FB4C
:10130000F3F26423B2FBF3F202EBC20303EB02122B
:10131000A1EB8201322202EB01116422B1FBF2F156
:1013200001F0F00100EBC00202EB001263689B00C9
:10133000B2FBF3F26423B2FBF3F201EB021200EB17
:10134000C00101EB001163689B00B1FBF3F100EBFE
:10135000C00303EB00136668B600B3FBF6F3642624
:10136000B3FBF6F303EBC30606EB0313A1EB830118
:10137000322303EB01116423B1FBF3F101F00F0100
:1013800011442268916070BD003801402DE9F041A0
:1013900004460D4617469846069E21E0701CF8B19B
:1013A0002EB1FFF71BF9A0EB0800B04218D9206856
:1013B000C06820F4D0702168C8602068406920F0BF
:1013C000010021684861202084F83D0084F83E0037
:1013D00000BF002084F83C0000BF0320BDE8F0817E
:1013E000206800682840A84201D1012000E00020C8
:1013F000B842D3D00020F1E700BFFEE70248006802
:10140000C0F30220704700000CED00E010B500288A
:1014100004DB0A07130E054A135406E00A07140EEC
:10142000034A00F00F031B1FD45410BD00E400E07A
:1014300018ED00E008B5FFF7E3F8FFF7F4FEFFF75B
:101440006FFEFFF7B5FE1DE00F48006800904FF4F7
:101450007A73042269460D48FFF7F6FD4FF47A735C
:1014600005220B490948FFF781FD0948007831281A
:1014700007D14FF400510748FFF7A0F800200449B6
:10148000087000BFE0E700000000002020000020FE
:1014900014000020001001400000000000000000C7
:1014A000010203040607080900000000010203040A
:1014B000D0140008000000201400000028010008DB
:1014C000E414000814000020B406000044010008E1
:1014D0000000803F0000000010000000010000003C
:0414E0000024F400F0
:04000005080000ED02
:00000001FF
