:020000040800F2
:10000000A8060020890100080518000861170008EB
:10001000011800087D030008C31800080000000054
:10002000000000000000000000000000351800087B
:1000300081030008000000000918000837180008B4
:10004000A3010008A3010008A3010008A301000800
:10005000A3010008A3010008A3010008A3010008F0
:10006000A3010008A3010008A3010008A3010008E0
:10007000A3010008A3010008A3010008A3010008D0
:10008000A3010008A3010008A3010008A3010008C0
:10009000A3010008A3010008A3010008A3010008B0
:1000A000A3010008A3010008A3010008A3010008A0
:1000B000A3010008A3010008A3010008A301000890
:1000C000A3010008A3010008A3010008A301000880
:1000D000A3010008A3010008A3010008A301000870
:1000E000A3010008A3010008A301000800F002F822
:1000F00000F03AF80AA090E8000C82448344AAF188
:100100000107DA4501D100F02FF8AFF2090EBAE885
:100110000F0013F0010F18BFFB1A43F0010318473B
:100120004018000060180000103A24BF78C878C159
:10013000FAD8520724BF30C830C144BF04680C60ED
:10014000704700000023002400250026103A28BF35
:1001500078C1FBD8520728BF30C148BF0B60704739
:100160001FB51FBD10B510BD00F058F81146FFF7C0
:10017000F7FF01F0C5FB00F076F803B4FFF7F2FFDC
:1001800003BC00F07DF8000009488047094800479B
:10019000FEE7FEE7FEE7FEE7FEE7FEE7FEE7FEE737
:1001A000FEE7FEE704480549054A064B7047000094
:1001B000C1180008ED000008A8000020A8060020D3
:1001C000A8020020A80200204FF0000200B513464C
:1001D00094469646203922BFA0E80C50A0E80C5067
:1001E000B1F12001BFF4F7AF090728BFA0E80C5018
:1001F00048BF0CC05DF804EB890028BF40F8042B11
:1002000008BF704748BF20F8022B11F0804F18BF7D
:1002100000F8012B7047704770477047754600F033
:100220002BF8AE4605006946534620F00700854688
:1002300018B020B5FFF7B6FFBDE820404FF000062C
:100240004FF000074FF000084FF0000B21F00701BE
:10025000AC46ACE8C009ACE8C009ACE8C009ACE801
:10026000C0098D46704710B50446AFF300802046A4
:10027000BDE81040FFF781BF0048704744000020F0
:1002800001491820ABBEFEE726000200704770B59A
:10029000044600252068806800F0010018B320683B
:1002A000806820F001002168886000F0FBFC0546B2
:1002B00013E000F0F7FC401B02280ED9206880688C
:1002C00000F0010048B1A06A40F01000A062E06AAE
:1002D00040F00100E062012070BD2068806800F0FD
:1002E00001000028E5D10020F6E7000038B50446FB
:1002F0000025002000902068806800F0010078BB95
:100300002068806840F00100216888601948006812
:100310001949B0FBF1F0009002E00098401E0090F7
:1003200000980028F9D100F0BDFC054619E000F066
:10033000B9FC401B022814D92068806800F0010035
:1003400078B9A06A40F01000A062E06A40F00100B5
:10035000E06200BF002084F8240000BF012038BD07
:1003600005E02068806800F001000028DFD0002050
:10037000F5E700001000002040420F0000BFFEE73C
:10038000704772B600BFFEE738B502460023002072
:10039000009000BF92F82400012801D1022038BD4E
:1003A000012082F8240000BF4868072812D2106894
:1003B000406B0C79641E04EB84051F24AC40A04301
:1003C0000D796D1E05EB85050C68AC402043146863
:1003D000606327E048680D2812D21068006B0C7922
:1003E000E41F04EB84051F24AC40A0430D79ED1FEE
:1003F00005EB85050C68AC4020431468206311E0D0
:100400001068C06A0C790D3C04EB84051F24AC40D5
:10041000A0430D790D3D05EB85050C68AC402043EC
:100420001468E06208680A2812D31068C0680C7863
:100430000A3C04EB44050724AC40A0430D780A3D78
:1004400005EB45058C68AC4020431468E0600FE084
:10045000106800690C7804EB44050724AC40A04305
:100460000D7805EB45058C68AC402043146820618D
:100470000868102802D00868112827D1174C106886
:10048000A0421ED11068806800F40000F0B9106826
:10049000806840F400001468A0600868102815D136
:1004A0000F4800680F4CB0FBF4F000EB80004000F8
:1004B000009002E00098401E009000980028F9D1BA
:1004C00004E0906A40F020009062012300BF002009
:1004D00082F8240000BF184661E7000000240140B4
:1004E0001000002040420F000146886A7047014614
:1004F0000868C06C704700002DE9F04104460027F1
:1005000000250026A84614B90120BDE8F081A068A6
:1005100010B1207D00B100BFA06A30B90020E062B8
:1005200084F82400204600F089F82046FFF7AFFE4B
:100530000746A06A00F01000002873D1002F71D187
:10054000A06A20F4885040F00200A062E16960686F
:100550000843217B40EA41000643A068B0F5807F54
:1005600002D0A068012802D14FF4807000E0002082
:100570000543207D012811D1207B38B9A069401E98
:100580004FF4006141EA4030054307E0A06A40F0C3
:100590002000A062E06A40F00100E062206840684C
:1005A00020F4694028432168486020688068214918
:1005B0000840304321688860A068B0F5807F02D091
:1005C000A068012802D14FF4807000E00020B0F54F
:1005D000807F03D1208A401E4FEA00582068C06AFD
:1005E00020F4700040EA08002168C8622068806832
:1005F00011490840B04208D10020E062A06A20F012
:10060000020040F00100A06211E0A06A20F00200A8
:1006100040F01000A062E06A40F00100E0620127B3
:1006200005E0FFE7A06A40F01000A062012738460D
:100630006BE70000FDF7E1FFFE0E1FFF10B586B06F
:10064000044600200290039004900590144920680D
:10065000884222D100BF1348806940F400701149DC
:1006600088610846806900F40070019000BF00BFF7
:1006700000BF0846806940F0040088610846806930
:1006800000F00400019000BF00BF10200290032082
:10069000039002A9044800F075F906B010BD0000EF
:1006A000002401400010024000080140F8B5044653
:1006B0000D46002600200090002700F0F3FA0646C1
:1006C0002068806800F4807050B1A06A40F020007B
:1006D000A06200BF002084F8240000BF0120F8BD04
:1006E0002068406800F4807020BB2068C06A00F475
:1006F0007000F8B917E0681CA8B125B100F0D2FA73
:10070000801BA8420FD92068006800F0020050B991
:10071000A06A40F00400A06200BF002084F824001A
:1007200000BF0320DBE72068006800F0020000281B
:10073000E1D053E0022000F07DFB38490968B1FBAD
:10074000F0F021680969364A114091B92168C968F9
:100750009211114069B921680969324A114031B9D1
:100760002168C9689211114009B9142117E02921A3
:1007700015E0216809692B4A114021B92168C9682F
:100780009211114041B121680969274A114029B9E4
:100790002168C968114009B9542100E0FC2100FB1F
:1007A00001F718E0681C98B125B100F07BFA801BB6
:1007B000A8420DD90098B8420AD2A06A40F00400BD
:1007C000A06200BF002084F8240000BF032086E759
:1007D0000098401C00900098B842E3D36FF01200DC
:1007E00021680860A06A40F40070A06220688068F8
:1007F00000F46020B0F5602F0DD1207B58B9A06ABD
:1008000020F48070A062A06A00F4805018B9A06A39
:1008100040F00100A062002061E70000100000200D
:1008200024499224922449124992240070B5044626
:10083000002500BF94F82400012801D1022070BDDA
:10084000012084F8240000BF2046FFF74FFD054635
:10085000002D77D1A06A40F20121884340F48070D6
:10086000A0623C492068884208D13B48006800F4F7
:10087000702008B9012002E0002000E0012078B1DA
:10088000A06A20F48010A0622068406800F48060B4
:1008900000B3A06A20F4005040F48050A06219E038
:1008A000A06A40F48010A0622B49091F206888428A
:1008B00003D028492068884204D12748006800F402
:1008C000806000E0002028B1A06A20F4005040F4CD
:1008D0008050A062A06A00F4805020B1E06A20F04D
:1008E0000600E06201E00020E06200BF002084F822
:1008F000240000BFC01E216808602068806800F4E2
:100900006020B0F5602F16D112492068884208D1C6
:100910001148006800F4702008B9012002E00020AE
:1009200000E0012038B12068806840F4A000216810
:1009300088600CE006E02068806840F48010216840
:10094000886004E000BF002084F8240000BF28462F
:1009500075E70000002801400424014070B50446FA
:1009600000F0A0F906462546681C10B1044800783E
:10097000054400BF00F096F9801BA842FAD370BD71
:100980000C0000202DE9F8470346002294466EE152
:100990004FF0010808FA02F4D1F8008008EA0400D8
:1009A000A0427DD1DFF8DCA2D1F80480A8EB0A09CF
:1009B000D0453AD014DCB8F1030F50D009DCB8F1BF
:1009C000000F31D0B8F1010F1CD0B8F1020F49D19E
:1009D00020E0B8F1110F18D0B8F1120F42D11EE08B
:1009E000B9F5881F25D006DCB9F5803F20D0B9F5D0
:1009F000801F37D11AE0B9F5001F18D0B9F5041FD0
:100A000030D117E0D1F80CC02DE0D1F80C8008F1FE
:100A1000040C28E0D1F80C8008F1080C23E0D1F890
:100A20000C8008F10C0C1EE000BF00BF00BF00BF2F
:100A300000BF00BFD1F80880B8F1000F02D14FF01D
:100A4000040C0BE0D1F80880B8F1010F03D14FF08E
:100A5000080C1C6102E04FF0080C5C6103E04FF0F1
:100A6000000C00E000BF00BFFF2801D8984601E05D
:100A700003F104084646FF2802D84FEA820803E043
:100A8000A2F108084FEA88084746D6F800804FF0E0
:100A90000F0909FA07F928EA09080CFA07F900E032
:100AA00088E048EA0908C6F80080D1F8048008F018
:100AB0008058B8F1805F7DD100BFDFF8CC81D8F8D5
:100AC000188048F00108DFF8C091C9F81880C846BE
:100AD000D8F8188008F00108CDF8008000BF00BFEA
:100AE0004FEAB9384FEA920958F829504FEA82780C
:100AF0004FEA18794FF00F0808FA09F825EA0805B7
:100B0000DFF88881434502D14FF0000816E0DFF896
:100B10008081434502D14FF001080FE0DFF8748176
:100B2000434502D14FF0020808E0DFF86C814345ED
:100B300002D14FF0030801E04FF004084FEA827938
:100B40004FEA197908FA09F848EA0505DFF84C81F7
:100B50004FEA920948F82950D1F8048008F4803807
:100B6000B8F5803F0AD1DFF83881D8F8008048EA2C
:100B70000008DFF82C91C9F8008009E0DFF8208137
:100B8000D8F8008028EA0008DFF81491C9F800803E
:100B9000D1F8048008F40038B8F5003F10D1DFF830
:100BA000008108F10408D8F8008048EA0008DFF85E
:100BB000F09000E05AE009F10409C9F800800DE066
:100BC000DFF8DC8008F10408D8F8008028EA000883
:100BD000DFF8CC9009F10409C9F80080D1F804804D
:100BE00008F48018B8F5801F0ED1DFF8B48008F142
:100BF0000808D8F8008048EA0008DFF8A49009F156
:100C00000809C9F800800DE0DFF8948008F10808B1
:100C1000D8F8008028EA0008DFF8849009F1080974
:100C2000C9F80080D1F8048008F40018B8F5001F56
:100C30000ED1DFF86C8008F10C08D8F8008048EA83
:100C40000008DFF85C9009F10C09C9F800800DE09C
:100C5000DFF84C8008F10C08D8F8008028EA00087A
:100C6000DFF83C9009F10C09C9F80080521CD1F85A
:100C7000008028FA02F8B8F1000F7FF489AEBDE8D1
:100C8000F887000000001110001002400008014029
:100C9000000C014000100140001401400800014018
:100CA0000004014001480068704700000400002073
:100CB00003480068034909780844014908607047FF
:100CC000040000200C00002010B50848006840F027
:100CD000100006490860032000F098F80F2000F08B
:100CE00007F800F02BF8002010BD000000200240A3
:100CF00070B504460E4800784FF47A71B1FBF0F0FD
:100D00000C490968B1FBF0F5284600F00FFD08B169
:100D1000012070BD102C07D200222146501E00F089
:100D200037F80548046001E00120F2E70020F0E711
:100D30000C000020100000200800002008B500BFB3
:100D40001148806940F001000F49886108468069B8
:100D500000F00100009000BF00BF00BF0846C0695E
:100D600040F08050C8610846C06900F08050009093
:100D700000BF00BF00BF0549486820F0E06040F0B8
:100D80000070486000BF08BD001002400000014034
:100D90002DE9F05F80460D461646002700F094FDD1
:100DA000074639462A46334601F00700C0F1070AD4
:100DB000BAF1040F02D94FF0040A01E0C0F1070AAA
:100DC000D14600F1040ABAF1070F02D24FF0000A2F
:100DD00001E0A0F1030AD4464FF0010A0AFA09FA29
:100DE000AAF1010A0AEA020A0AFA0CFA4FF0010B08
:100DF0000BFA0CFBABF1010B0BEA030B4AEA0B04F9
:100E00002146404600F068FDBDE8F09F00BF00F0BD
:100E10000702064B19684FF6FF031940044B0B43BA
:100E200043EA0221014B196000BF70470CED00E05E
:100E30000000FA052DE9F04385B006463BA30FCB31
:100E400001AC0FC43DA0006800904FF000080025E1
:100E500000270024A146012E30D0022E55D0102E9E
:100E60005ED137484468006800F0807000B301A884
:100E7000C4F38341475C04F4803070B1304840686B
:100E8000C0F340401DF8008004F4803040B12D488C
:100E9000B0FBF8F000FB07F502E02B4807FB00F57C
:100EA0002748406800F48000B0F5800F01D1A946C2
:100EB00003E068000321B0FBF1F932E02048046A46
:100EC00004F44070B0F5807F05D104F0020010B149
:100ED0004FF4004918E004F44070B0F5007F07D1EA
:100EE0001748406A00F0020010B149F640490BE093
:100EF00004F44070B0F5407F06D11148006800F45A
:100F0000003008B14FF224490BE000F083F90C499E
:100F10004968C1F38131491C4900B0FBF1F900E097
:100F200000BF00BF484605B0BDE8F08302030405DA
:100F3000060708090A0B0C0D0E0F10100102000025
:100F40000010024000127A0000093D00F8B5044686
:100F500000260025207800F0010000286BD0002733
:100F60004348C06900F0805070B900BF4048C06974
:100F700040F080503E49C8610846C06900F080508A
:100F8000009000BF00BF01273A48006800F480705D
:100F9000B0B93848006840F4807036490860FFF7FF
:100FA00081FE064606E0FFF77DFE801B642801D91E
:100FB0000320F8BD2F48006800F480700028F2D0AC
:100FC0002B48006A00F440752DB3A08800F44070EF
:100FD000A84220D02648006A20F440750120264906
:100FE0000860002008602248056205F0010090B109
:100FF000FFF758FE064608E0FFF754FE801B41F25B
:101000008831884201D90320D3E71948006A00F0EB
:1010100002000028F0D01648006A20F44070616891
:10102000084313490862012F04D10846C06920F023
:101030008050C86100BF207800F00200022807D16C
:101040000B48406820F44040A168084308494860C4
:10105000207800F01000102807D10548406820F4DF
:101060008000E1680843024948600020A1E70000D1
:1010700000100240007000404004424270B5044637
:101080000D460CB9012070BD5A48006800F00700F9
:10109000A8420ED25748006820F00700284355495F
:1010A00008600846006800F00700A84201D001204F
:1010B000E9E7207800F0020002281DD1207800F036
:1010C0000400042805D14C48406840F4E0604A49D7
:1010D0004860207800F00800082805D1464840689C
:1010E00040F46050444948604348406820F0F000B4
:1010F000A168084340494860207800F0010078B3B7
:101100006068012806D13C48006800F4003090B9BE
:101110000120B8E76068022806D13748006800F06F
:10112000007040B90120AEE73348006800F00200CB
:1011300008B90120A7E73048406820F00300616843
:1011400008432D494860FFF7ADFD064609E0FFF76B
:10115000A9FD801B41F28831884202D9032092E721
:1011600007E02548406800F00C006168B0EB810F93
:10117000EDD12048006800F00700A8420ED91D48B4
:10118000006820F0070028431A49086008460068F4
:1011900000F00700A84201D0012074E7207800F099
:1011A0000400042807D11448406820F4E060E16896
:1011B000084311494860207800F00800082808D149
:1011C0000D48406820F46050216940EAC1000A4996
:1011D000486000F02FF808494968C1F30311074A35
:1011E000515CC8400649086006480068FFF780FD6A
:1011F000002048E700200240001002404819000883
:10120000100000200800002001480068704700001E
:101210001000002000B5FFF7F7FF04494968C1F34B
:10122000C221034A515CC84000BD000000100240CA
:1012300058190008F0B585B00FF26C0C9CE8E0106E
:1012400001A8A0E8E0101CA52D680095002100224F
:10125000002300240020194D696801F00C05F5B148
:10126000042D02D0082D19D101E0154819E001AD77
:10127000C1F38346AC5D01F4803555B10F4D6D6807
:10128000C5F340451DF805200D4D6543B5FBF2F350
:1012900002E00C4D04FB05F3184602E000BF0848CD
:1012A00000BF00BF05B0F0BD020304050607080932
:1012B0000A0B0C0D0E0F101001020000001002406E
:1012C00000127A0000093D00F8B504460CB901206F
:1012D000F8BD207800F00100002878D0F848406878
:1012E00000F00C0004280CD0F548406800F00C0019
:1012F000082811D1F248406800F48030B0F5803FF2
:101300000AD1EF48006800F4003000285FD0606820
:1013100000285CD10120DBE700BF6068B0F5803FAA
:1013200006D1E748006840F48030E549086028E0CD
:10133000606858B9E248006820F48030E0490860ED
:101340000846006820F4802008601AE06068B0F564
:10135000A02F0BD1DA48006840F48020D8490860FB
:101360000846006840F4803008600AE0D44800680D
:1013700020F48030D24908600846006820F48020BC
:10138000086000BF606888B1FFF78CFC054606E086
:10139000FFF788FC401B642801D9032098E7C84860
:1013A000006800F400300028F2D010E0FFF77AFC6B
:1013B000054606E0FFF776FC401B642801D90320B0
:1013C00086E7BF48006800F400300028F2D120789A
:1013D00000F00200022857D1B948406800F00C0024
:1013E00050B1B748406800F00C00082818D1B44844
:1013F000406800F4803098B9B148006800F00200FD
:1014000020B12069012801D0012061E7AC480068C3
:1014100020F0F800616940EAC100A949086033E0A2
:101420002069E8B10120A7490860FFF73BFC0546A9
:1014300006E0FFF737FC401B022801D9032047E7ED
:101440009F48006800F002000028F2D09C48006825
:1014500020F0F800616940EAC1009949086013E092
:10146000002098490860FFF71DFC054606E0FFF7DD
:1014700019FC401B022801D9032029E79048006885
:1014800000F002000028F2D1207800F008000828BF
:101490002DD1A069B8B101208B490860FFF702FC8B
:1014A000054606E0FFF7FEFB401B022801D903209A
:1014B0000EE78348406A00F002000028F2D00120C5
:1014C00000F0A4F913E000207F490860FFF7EAFB71
:1014D000054606E0FFF7E6FB401B022801D9032082
:1014E000F6E67748406A00F002000028F2D1207842
:1014F00000F00400042873D100277148C06900F08F
:10150000805070B900BF6E48C06940F080506C498F
:10151000C8610846C06900F08050009000BF00BF5D
:1015200001276A48006800F48070B0B96748006815
:1015300040F4807065490860FFF7B4FB054606E09B
:10154000FFF7B0FB401B642801D90320C0E65F48C9
:10155000006800F480700028F2D000BFE068012825
:1015600006D15748006A40F001005549086227E05B
:10157000E06858B95248006A20F0010050490862FA
:101580000846006A20F00400086219E0E0680528B7
:101590000BD14B48006A40F00400494908620846F4
:1015A000006A40F0010008620AE04548006A20F045
:1015B0000100434908620846006A20F004000862FE
:1015C00000BFE068A0B1FFF76DFB054609E0FFF73B
:1015D00069FB401B41F28831884202D9032077E63B
:1015E00022E03748006A00F002000028EFD012E045
:1015F000FFF758FB054608E0FFF754FB401B41F29C
:101600008831884201D9032062E62D48006A00F043
:1016100002000028F0D1012F05D12948C06920F02F
:1016200080502749C86100BFE069C8B324484068BA
:1016300000F00C00082860D0E069022848D10020A2
:1016400020490866FFF72EFB054606E0FFF72AFB58
:10165000401B022801D903203AE61948006800F02F
:1016600000700028F2D1206AB0F5803F07D11448FD
:10167000406820F40030A168084311494860D4E96B
:10168000080108430E49496821F4741108430C49C4
:10169000486001200B490866FFF704FB054607E098
:1016A0003DE0FFF7FFFA401B022801D903200FE6B7
:1016B0000348006800F000700028F2D02FE000001E
:1016C000001002400000424280044242007000408C
:1016D000002014490866FFF7E5FA054606E0FFF723
:1016E000E1FA401B022801D90320F1E50E48006809
:1016F00000F000700028F2D111E0E069012800D16B
:10170000E6E50948466806F48031206A814204D142
:1017100006F47011606A814201D00120D8E50020F2
:10172000D6E50000000042420010024070B50446B9
:101730002546681EB0F1807F01D301200FE0681EAE
:101740004FF0E02148610F214FF0FF3000F0C4F866
:1017500000204FF0E021886107200861002070BD63
:1017600000BFFEE70EB500200090019002901248E5
:1017700012490860002111488160017301754FF41E
:101780006021C16100200D49486001210B480161C1
:10179000FEF7B2FE08B1FEF7F4FD04200090012030
:1017A00001900020029069460448FEF7EDFD08B163
:1017B000FEF7E7FD0EBD00000024014014000020EC
:1017C00008B500BF0D48806940F020000B498861D2
:1017D0000846806900F02000009000BF00BF00BFF5
:1017E0000846806940F0040088610846806900F07E
:1017F0000400009000BF00BF08BD000000100240C0
:1018000000BFFEE700BFFEE77047000008B50849CB
:101810000968C9084FF47A72B1FBF2F141430091B3
:1018200000BF00BF00994A1E00920029F9D108BDEF
:1018300010000020704710B5FFF73AFA10BD00B550
:1018400093B0282109A8FEF7BFFC142104A8FEF7D5
:10185000BBFC0020009001900290039001200990B1
:1018600000040A9000200B9001200D90022010909F
:10187000C1031191C104129109A8FFF725FD08B118
:10188000FEF77FFD0F2004900220059000200690B7
:101890004FF48060079000200890012104A8FFF712
:1018A000EDFB08B1FEF76DFD0220009040030290B1
:1018B0006846FFF74BFB08B1FEF763FD13B000BDB0
:1018C000704700BFFEE7000002480068C0F3022036
:1018D000704700000CED00E010B5002804DB0A079B
:1018E000130E054A135406E00A07140E034A00F0CB
:1018F0000F031B1FD45410BD00E400E018ED00E0FE
:10190000FFF7E2F9FFF79BFFFFF75AFFFFF72AFF08
:1019100015E00B48FEF78AFF32210948FEF7C6FEA4
:101920000748FEF7E1FD00F4007020B10448FEF71F
:10193000DEFD044908804FF4FA70FFF70FF8E8E77E
:101940001400002000000020000000000000000043
:101950000102030406070809000000000102030455
:101960008019000800000020140000002801000871
:101970009419000814000020940600004401000897
:101980000000000000000000100000000100000046
:041990000024F4003B
:04000005080000ED02
:00000001FF
